:020000040800F2
:10000000E825002031020008A1270008811F000810
:1000100081260008830B0008A52F000800000000BF
:10002000000000000000000000000000990100082E
:10003000EF0C000800000000DD0100081D2B000887
:100040004B0200084B0200084B0200084B0200085C
:100050004B0200084B0200084B0200084B0200084C
:100060004B0200084B0200084B0200084B0200083C
:100070004B0200084B0200084B0200084B0200082C
:100080004B0200084B0200084B0200084B0200081C
:100090004B0200084B0200084B0200084B0200080C
:1000A0004B0200084B0200084B0200084B020008FC
:1000B0004B0200084B020008A92B00084B02000865
:1000C0004B0200084B0200084B0200084B020008DC
:1000D0004B0200084B0200084B0200084B020008CC
:1000E0008D0E00084B0200084B02000800F002F8D9
:1000F00000F042F80AA090E8000C82448344AAF180
:100100000107DA4501D100F037F8AFF2090EBAE87D
:100110000F0013F0010F18BFFB1A43F0010318473B
:10012000C4680000E4680000103A24BF78C878C1B1
:10013000FAD8520724BF30C830C144BF04680C60ED
:10014000704700000023002400250026103A28BF35
:1001500078C1FBD8520728BF30C148BF0B60704739
:10016000642900F06181732900F0E9830020704761
:100170001FB51FBD10B510BD00F0EEFB1146FFF717
:10018000F7FF02F0E1FF00F00CFC03B4FFF7F2FF11
:1001900003BC00F011FC0000224B19680868B0E8AD
:1001A000F00F80F30988BFF36F8F4FF0000080F3EA
:1001B00011884EF00D0E70470000000006480068E0
:1001C000006880F3088862B661B6BFF34F8FBFF353
:1001D0006F8F00DF00BF00BF08ED00E0EFF3098084
:1001E000BFF36F8F0F4B1A6820E9F00F106008B54E
:1001F0004FF0500080F31188BFF34F8FBFF36F8F24
:1002000004F0F8FB4FF0000080F31188BDE80840CF
:1002100019680868B0E8F00F80F30988BFF36F8FA2
:10022000704700BF5C000020EFF3058070470000BE
:100230000948804709480047FEE7FEE7FEE7FEE77A
:10024000FEE7FEE7FEE7FEE7FEE7FEE704480549B6
:10025000054A064B70470000A72B0008ED00000878
:10026000E8150020E8250020E81D0020E81D0020FA
:1002700053EA020C00F069802DE9F04B4FF00006C4
:10028000002B1FBFB3FA83F503FA05F424FA05F631
:100290005E4012BF1643B2FA82F502FA05F4C5F1C8
:1002A00020051EBF22FA05FC44EA0C04203556EA5C
:1002B000044C4FEA144418BF641C4FF000084FF080
:1002C0000009904271EB030C39D3002919BFB1FA30
:1002D00081F701FA07F6B0FA80F700FA07F6C7F1DE
:1002E00020071EBF20FA07FC46EA0C062037B6FBA3
:1002F000F4FCA7EB0507103F07F01F0BCBF120061E
:100300000CFA0BFB2CFA06F644BFB3460026202F4E
:10031000A4BF5E464FF0000B5BEA060C08BF4FF02F
:10032000010B19EB0B09ABFB027C48EB0608C01B69
:1003300006FB02CC0BFB03CC71EB0C01C1E70B46B7
:10034000024641464846BDE8F08B13B54FF0000029
:100350004FF00001AFF30080BDE81C407047000083
:100360000FB41CB5074B06AA7B446946009005985C
:1003700000F0BBFA0020694600F0CAFA1CBC5DF828
:1003800014FB0000A505000070B5044685690068EF
:10039000C10601D5302600E02026C00707D070BD79
:1003A000D4E9012130469047206A401C20626D1E2E
:1003B000F6D570BD70B5044685690078C00707D1D1
:1003C00070BDD4E9012120209047206A401C2062A2
:1003D0006D1EF6D570BD70B50C460546012A05D0D8
:1003E0002878800600D5EA69002302E0012305E0B1
:1003F0005B1C934202D2E05C0028F9D1A869E618A0
:10040000C01AA861286A184428622846FFF7BCFF72
:1004100004E0D5E9012114F8010B9047B442F8D368
:100420002846FFF7C7FF70BD2DE9F04106460024BE
:1004300010687529314616A510D0AFF3008000284A
:1004400002DA404213A507E031688A0701D512A5F8
:1004500002E0490704D511A5012401E0AFF30080B3
:1004600000210A2206F1240709E0B0FBF2FCB0FBF0
:10047000F2F302FB1C00303078541846491C002867
:10048000F3D123462A463046BDE8F04100F0CFB90B
:10049000000000002D0000002B00000020000000E4
:1004A0002DE9F05F894604464FF0000ADFF824B1D9
:1004B000FB44C0F820A02046E168884700287DD092
:1004C000252806D0D4E901219047206A401C2062EB
:1004D000F1E700255F462046E16888472028064668
:1004E00007DB312E05D2B81910F8200C08B10543EE
:1004F000F1E7A80701D525F00405C4F81CA00027E2
:10050000C4F818A02A2E09D0304602F0E5FD38B311
:1005100004EB8708303EC8F8186019E059F8041B4E
:10052000204604EB87029161E1688847012F064667
:1005300018D1E069002820DA25F020051DE0D8F860
:10054000180000EB800006EB40003038C8F81800B7
:100550002046E1688847064602F0BEFD0028EED13D
:10056000012F0AD02E2E08D12046E16888477F1C33
:100570000646022F45F02005C4DBA069002803DAF7
:10058000404245F00105A061E80701D025F01005C3
:10059000A6B1A6F14100192802D8203645F400651D
:1005A0004A463146204625604D46FFF7D9FD60B1E9
:1005B000012807D0ED1D25F0070000E007E000F15D
:1005C000080978E705F1040975E730467AE7206AFB
:1005D000BDE8F09F1864000030B505460B462A467A
:1005E00013F8014B12F8010B08B1A042F8D01CB16E
:1005F000002802D06D1CF1E7284630BD40EA010317
:10060000024630B59B0710D14FF0013400E008C21C
:1006100008C91D1B9D4315EAC41FF8D013F0FF0144
:1006200002F8011B0DD01B0AF8E711F8013B002B63
:1006300002F8013B05D011F8013B002B02F8013B09
:10064000F3D130BD10B5431C02E010F8011B71B1AD
:100650008107FAD14FF0013202C88C1A8C4314EA98
:10066000C211F9D0C01A0A0603D0C01E10BDC01AAC
:1006700010BD0A0401D0801E10BD0902FCD0401E2E
:1006800010BD032A40F2308010F0030C00F01580FA
:1006900011F8013BBCF1020F624498BF11F801CB85
:1006A00000F8013B38BF11F8013BA2F1040298BFEA
:1006B00000F801CB38BF00F8013B11F0030300F054
:1006C0002580083AC0F0088051F8043B083A51F8F8
:1006D00004CBA0E80810F5E7121D5CBF51F8043BFD
:1006E00040F8043BAFF30080D20724BF11F8013B70
:1006F00011F801CB48BF11F8012B24BF00F8013BD2
:1007000000F801CB48BF00F8012B704710B5203A24
:10071000C0F00B80B1E81850203AA0E81850B1E8BA
:100720001850A0E81850BFF4F5AF5FEA027C24BF70
:10073000B1E81850A0E8185044BF18C918C0BDE867
:1007400010405FEA827C24BF51F8043B40F8043B30
:1007500008BF7047D20728BF31F8023B48BF11F8E5
:10076000012B28BF20F8023B48BF00F8012B70473F
:1007700002F0FF0343EA032242EA024200F002B819
:100780004FF000020429C0F0128010F0030C00F0BA
:100790001B80CCF1040CBCF1020F18BF00F8012B38
:1007A000A8BF20F8022BA1EB0C0100F00DB85FEA06
:1007B000C17C24BF00F8012B00F8012B48BF00F8D2
:1007C000012B70474FF0000200B513469446964641
:1007D000203922BFA0E80C50A0E80C50B1F1200154
:1007E000BFF4F7AF090728BFA0E80C5048BF0CC002
:1007F0005DF804EB890028BF40F8042B08BF704760
:1008000048BF20F8022B11F0804F18BF00F8012BD1
:10081000704770477047704710B500F095F8006852
:1008200010BD10B5044600F08FF8046010BD2DE92E
:10083000F0470D4699469246044600F124080168A7
:10084000880604D5E06921F01001216000E0012054
:10085000A84201DD471B00E00027A1697A1902EBDD
:100860000900081AA0612078C00602D42046FFF7CC
:100870008BFD002608E0D4E901211AF80600904714
:10088000206A401C761C20624E45F4DB2078C006AE
:100890000AD52046FFF778FD06E0D4E90121302093
:1008A0009047206A401C2062381EA7F10107F4DC43
:1008B00007E0D4E9012118F805009047206A401CA0
:1008C0002062281EA5F10105F3DC2046FFF772FD2A
:1008D0002078000602D50220BDE8F0870120FBE762
:1008E00001694A1C02610878704700B58FB0CDE9F4
:1008F00001310021059105497944CDE903101146E4
:100900006846FFF7CDFD0FB000BD0000E5FFFFFF1B
:100910000A6802F8010B0A60704710B5436913B109
:10092000AFF3008001E0FFF756FD012010BD127803
:1009300000F124010A7000224A700122EDE71168DB
:100940004FF0FF32E9E700000048704788150020AB
:1009500000487047881500207546FFF7F9FFAE463E
:1009600005006946534620F00700854618B020B5BB
:10097000FFF76CFCBDE820404FF000064FF0000789
:100980004FF000084FF0000B21F00701AC46ACE837
:10099000C009ACE8C009ACE8C009ACE8C0098D46A4
:1009A000704710B50446AFF300802046BDE8104004
:1009B000FFF7EBBB7047000001491820ABBEFEE714
:1009C00026000200FFB41E48AA2208230270FF225C
:1009D0004270F2228270C3709DF8002002719DF86F
:1009E000012042719DF8042082719DF80520C2719A
:1009F0009DF8082002729DF8092042729DF80C2093
:100A0000827200249DF80D20C2720C2225462146D8
:100A10001B1D06E0465C491C3444E4B22544EDB29B
:100A2000C9B28B42F6D88454521C4FF6FF738554DA
:100A300004B00349F0BC0348521C01F051BA000055
:100A400024150020F403002010B5012000F032F836
:100A5000102000F02FF8BDE81040C82002F085BB40
:100A600010B500F00DF804F0B3FF4FF03332034B34
:100A700004F010FEBDE8104004F01EBD3333F33F18
:100A800070B501F055FE472001F03EFE01F008FE72
:100A900001F015FE0446002001F02BFE01F00FFED0
:100AA0000546012001F025FE01F051FE05EB042072
:100AB00080B270BD10B5044601F03AFE462001F048
:100AC00023FE01F0EDFD204601F01EFE01F0E8FDE1
:100AD000BDE8104001F03BBE70470289C1888A42E0
:100AE00001D3501A02E08088401A104480B2704747
:100AF00070B504460D46C0882189884201D1002086
:100B000070BD29786868FFF73BFE00216970E088B6
:100B10002289904209D81FE02368421CE2801B5CB6
:100B200068786E68421C6A703354E088A2889042EC
:100B300003D26A782B789A42EED9A28880B290428A
:100B40000AD1E18008E02368421CE2801B5C6878DF
:100B50006E68421C6A703354E0882289904204D245
:100B60002A786B78521E9342EDDB6A78686881546C
:100B7000012070BD0021C180018181880068FFF7DC
:100B8000FFBDFEE770B5094D4FF480740022214689
:100B9000284600F0B0FAC82002F0F4FA21462846B0
:100BA000BDE87040012200F0A6BA00000008014034
:100BB0000021417001784068FFF7E2BD012000F09C
:100BC0000DB8000010B50221034800F08FFA01288B
:100BD00000D0002010BD000000080140044B08B107
:100BE000012200E000220221184600F084BA000031
:100BF000000801402DE9F05F82468B460020FFF798
:100C0000EDFF142002F0B1FA012202211C4800F08D
:100C100072FA3C2003F030FDFFF7D4FF4FF0FF39AC
:100C200058BB4FF47A742146012000F04EF820BBE7
:100C30002146002000F049F8F8B900F023F8C5B2C9
:100C400000F020F800F0FF0800F01CF8C4B200F03B
:100C500019F8C7B200F016F8C6B20120FFF7BEFFC0
:100C600005EB080020443844B04206D1CAF80050D1
:100C70000020CBF80040BDE8F09F4846FBE70000AD
:100C8000000801402DE9F04100242546671E4FF47D
:100C90007A763146012000F018F870B9282003F068
:100CA000EBFC6400FFF78EFF012801D144F0010442
:100CB0003146002000F009F810B13846BDE8F08157
:100CC0006D1C082DE5DB2046F8E770B50C4605469F
:100CD00008E0FFF777FFA84201D1002070BD012096
:100CE00003F0CAFC641EF4D24FF0FF3070BD7047B1
:100CF00030B591B00C46054640216846FFF762FDCD
:100D000023462A4608A16846FFF72AFB00240DA1C6
:100D1000684600F01BF8012804D0641CE4B2052CDE
:100D2000F5D3002011B030BD41542B4349505354EA
:100D30004152543D22544350222C222573222C250B
:100D4000730D0A00434F4E4E4543540070B590B0AA
:100D50000D46024618A16846FFF702FB1848FFF748
:100D600009FF1848FFF724FF684600F069F84FF4C0
:100D70007A7003F065FD1248FFF7AFFE002817D028
:100D800010490F48FFF7B4FE0E48FFF7A5FE0D4EC1
:100D900069467068FFF720FC04000BD06846FFF737
:100DA00051FC20442946FFF717FC002800D0012001
:100DB00010B070BD7068F5E725730D0A00000000E3
:100DC00018150020E400002070B590B00E460246D1
:100DD00017A16846FFF7C4FA1748FFF7CBFE17487C
:100DE000FFF7E6FE684600F02BF84FF47A7003F048
:100DF00027FD1148FFF771FE002815D00F490E4856
:100E0000FFF776FE0D48FFF767FE0C4D69466868F0
:100E1000FFF7E2FB040009D06846FFF713FC011955
:100E20003046FFF7EBFB012010B070BD6968F7E7B3
:100E300025730D0A0000000018150020E4000020B2
:100E400070B504464FF0FF36084D0BE033460122E3
:100E50002146064801F044F828680168C94349065C
:100E6000FBD4641C20780028F0D170BDAC030020B6
:100E700010B504A0FFF7E4FFBDE810404FF4FA708E
:100E800003F0DEBC415445300D0A00004FF48050A1
:100E900000F030B872B6FEE7084AFF20D2E901132D
:100EA000994209D00648405C491CCB1701EB5363BB
:100EB00023F07F03C91A516070470000C80000206A
:100EC0007811002070B5044600F01AF90546601C40
:100ED00002D004480078044400F012F9401BA042FC
:100EE000FAD370BD4C000020B0F5805F01D101F055
:100EF00007B97047044910B50A68024202D0086079
:100F0000FFF7F2FF10BD0000140401402DE9F84F77
:100F1000DFF8B8910024A9F1040B23460F2709F14B
:100F2000040AABF1040EC9E00125A5402A40AA42FB
:100F30007DD1674ED1F804C0ACEB0608B44532D081
:100F400014DCBCF1030F3AD009DCBCF1000F2AD04D
:100F5000BCF1010F1CD0BCF1020F31D11DE0BCF17E
:100F6000110F17D0BCF1120F2AD119E0B8F5881F64
:100F700019D006DCB8F5803F15D0B8F5801F1FD119
:100F800011E0B8F5001F0ED0B8F5041F18D10AE023
:100F9000CB6815E0CB681B1D12E0CB6808330FE06F
:100FA000CB680C330CE08B682BB1012B4FF008039E
:100FB00003D0456104E0042302E0056100E0002362
:100FC000FF2A01D8064601E000F104064FEA840535
:100FD00001D9A5F12005D6F8008007FA05FC28EA1A
:100FE0000C0803FA05F548EA0508C6F800804D68C4
:100FF000ED0062D5374DAE6946F00106AE61AD69D0
:1010000024F0030605F001050095334D06EB050CB1
:10101000DCF80850A607360F07FA06F825EA080597
:10102000DFF8B880404503D14FF0000817E044E0F6
:10103000DFF8AC80404502D14FF001080FE0DFF847
:10104000A480404502D14FF0020808E0DFF8988004
:10105000404502D14FF0030801E04FF0040808FAC0
:1010600006F848EA0508CCF808804D68D9F8006011
:10107000ED024D4601D5164300E096432E604D68C3
:10108000DAF80060AD02554601D5164300E09643FC
:101090002E604D68DBF80060AD035D4601D5164358
:1010A00000E096432E604D68DEF80060ED03754663
:1010B00001D5164300E096432E60641C0D682A4655
:1010C000E5407FF431AFBDE8F88F0000080401402F
:1010D0000000111000100240000001400008014013
:1010E000000C0140001001400014014080680840DD
:1010F00000D0012070470AB1016170470904FBE785
:1011000001488068704700004C0000200248816858
:1011100002781144816070474C000020074810B5E8
:10112000016841F010010160032000F0A7F80F20D2
:1011300000F006F800F050F8002010BD002002403A
:1011400030B505461F4887B0C16941F00401C1614F
:10115000C06906A900F00400009001A800F036F96B
:101160000498B0B100F052F940001749174AB0FB9B
:10117000F1F11748491E0260416040F2E732002158
:10118000C0E903218160816100F04CFB040003D0C1
:1011900015E000F03BF9E8E70D4800F083FB0400A0
:1011A0000DD11E2000F03CF8102D07D20022294658
:1011B0001E2000F043F80748056000E0012407B056
:1011C000204630BD0010024040420F0000080040A1
:1011D0003C040020500000200F4808B5816941F010
:1011E00001018161816901F001010091C16941F052
:1011F0008051C161C069002200F0805000900F2131
:10120000901E00F01BF80548416821F0E06141F0B4
:101210000071416008BD0000001002400000014064
:10122000002809DB00F01F020121914040098000E5
:1012300000F1E020C0F8001170470000F0B40E4B40
:101240001B680C46C3F30223C3F10705042D00D924
:101250000425191D072901D2002300E0DB1E012609
:1012600006FA05F1491E214099409E40761E16401F
:101270003143F0BC01F0ABBE0CED00E0064900F0DC
:10128000070208684FF6FF03184040EA0220034AAD
:1012900010430860704700000CED00E00000FA0504
:1012A0002DE9F0470F46050061D0434E306800F04D
:1012B0000700B84209D2306820F007003843306098
:1012C000306800F00700B84251D128683B4C8107D4
:1012D00012D5400703D5606840F4E060606028786C
:1012E000000703D5606840F4605060606068A968DA
:1012F00020F0F000084360602878C00728D06868B4
:10130000012810D02168022810D0890700292EDA80
:10131000616821F0030101436160FFF7F1FE80463F
:1013200041F288390DE021688903EFE78901EDE793
:10133000FFF7E6FEA0EB0801494502D90320BDE80E
:10134000F0876068696800F00C00B0EB810FEFD1A6
:10135000306800F00700B8420BD9306820F0070071
:1013600038433060306800F00700B84201D00120F7
:10137000E5E72878400705D56068E96820F4E06073
:10138000084360602878000706D56068296920F462
:10139000605040EAC100606000F058F86168084A97
:1013A000C1F30311515CC840064908600648006853
:1013B000FFF7C6FE0020C2E70020024000100240F6
:1013C0006E62000858000020500000200F220260CA
:1013D0000C4A536803F003034360536803F0F003BF
:1013E0008360536803F4E063C36052684FF4E063C2
:1013F00003EAD20202610448006800F007000860B6
:1014000070470000001002400020024004480549D7
:1014100000684968044AC1F30221515CC840704722
:1014200058000020001002407E6200080448054970
:1014300000684968044AC1F3C221515CC840704742
:1014400058000020001002407E6200080E4A5168D9
:101450000E4801F00C03042B11D0082B0FD10C48BF
:10146000C1F38343C903C05C0AD55168084AC1F37C
:101470004041921E515C054A5043B0FBF1F0704769
:1014800004494843704700000010024000127A00EF
:101490005E62000800093D002DE9F84F040070D09D
:1014A0002078C04DC00749D06868C0F3810001288A
:1014B00007D06868C0F38100022809D16868C003BA
:1014C00006D52868800339D560680028E7D035E064
:1014D0006068B0F5803F0BD010B1B0F5A02F11D0EF
:1014E000286820F480302860286820F4802002E0FA
:1014F000286840F480302860606890B1FFF700FEF3
:1015000006460AE0286840F480202860F0E700BF23
:10151000FFF7F6FD801B642873D828688003F7D591
:101520000CE0FFF7EDFD064605E000BFFFF7E8FD24
:10153000801B6428F0D828688003F7D420789A4E5E
:1015400080074FF001094FF0000839D5686810F0A6
:101550000C0F07D06868C0F38100022809D16868C1
:10156000C00306D42868800714D52069012808D153
:1015700010E02069B0B1C6F80090FFF7C1FD074642
:1015800005E00AE1FFF7BCFDC01B0228C4D82868AB
:101590008007F7D52868616920F0F80040EAC100AB
:1015A00028600DE0C6F80080FFF7AAFD074604E0BA
:1015B000FFF7A6FDC01B022823D828688007F7D4B0
:1015C000207800072CD57948A169D9B1C0F80090DE
:1015D000FFF796FD074604E0FFF792FDC01B0228C7
:1015E0000FD8686A8007F7D571484FF4FA51006840
:1015F000B0FBF1F0009000BF0098411E0091FAD2BC
:101600000EE080E0C0F80080FFF77AFD074604E0B6
:10161000FFF776FDC01B022875D8686A8007F7D4EB
:101620002078400760D5E8690027C00008D4E86941
:1016300040F08050E861E869012700F08050009098
:101640005C480168C90513D40168834641F4807180
:101650000160FFF755FD824606E000BFFFF750FD31
:10166000A0EB0A0064284ED8DBF80000C005F5D5D1
:10167000E06801280AD008B1052813D0286A20F0B4
:1016800001002862286A20F0040002E0286A40F085
:1016900001002862E06841F2883B98B1FFF730FD15
:1016A00082460BE0286A40F004002862EEE700BFA3
:1016B000FFF726FDA0EB0A0159455AD8286A800792
:1016C000F6D50CE0FFF71CFD824605E0FFF718FD9C
:1016D000A0EB0A0159454CD8286A8007F6D41FB1FF
:1016E000E86920F08050E861E06988B36968C1F377
:1016F0008101022944D00228C6F8608004D0FFF797
:10170000FFFC044638E034E0FFF7FAFC074604E04B
:10171000FFF7F6FCC01B02282BD828688001F7D4FD
:10172000206AB0F5803F05D16868A16820F40030D8
:1017300008436860D4E908010843696821F474111A
:1017400008436860C6F86090FFF7DAFC044606E0DC
:1017500025E000BFFFF7D4FC001B022809D8286849
:101760008001F7D51BE000BFFFF7CAFC001B022871
:1017700002D90320BDE8F88F28688001F4D40EE078
:101780000128F7D06868226A00F48031914204D1C0
:10179000616A00F47010884201D00120EAE700205D
:1017A000E8E700000010024000004242800442428C
:1017B00058000020007000407047704770B590F8E6
:1017C0003C20012A26D0012480F83C40022280F8E7
:1017D0003D2003685A689D6822F070060A6832430B
:1017E0005A600D4B02689A4208D0B2F1804F05D082
:1017F0000A4B9A4202D00A4B9A4204D1496825F01A
:1018000080031943916080F83D40002180F83C102E
:10181000084670BD022070BD002C0140000400404D
:101820000008004010B5040003D094F83D0010B14A
:1018300007E0012010BD002084F83C00204600F0A5
:101840001FF8022084F83D00211D206801F0B2F944
:10185000012084F8460084F83E0084F83F0084F8B4
:10186000400084F8410084F8420084F8430084F882
:10187000440084F8450084F83D00002010BD0000BD
:1018800008B50068B0F1804F08D10548C16941F042
:101890000101C161C06900F00100009008BD0000B5
:1018A0000010024090F83D10012901D0012070473E
:1018B000022180F83D100168CA6842F00102CA6046
:1018C00000680B49884208D0B0F1804F05D0094923
:1018D000884202D00849884204D1816801F007019A
:1018E000062903D0016841F0010101600020704722
:1018F000002C0140000400400008004070B5044680
:1019000090F83C000025012817D0012684F83C609F
:10191000022084F83D002068826822F0770222F4D9
:101920007F4282600868502838D00DDC20284FD0D4
:1019300005DC90B3102811D14AE0022070BD302898
:1019400046D040280AD13BE060282FD070280DD027
:10195000B0F5805F03D0B0F5005F12D0012584F8A8
:101960003D60002084F83C00284670BDCB68D1E97A
:101970000121206801F067F92068816841F0770152
:1019800009E0CB68D1E90121206801F05CF9206809
:10199000816841F480418160E1E719E0CA684968E3
:1019A000206801F005FA5021206806E0CA684968FD
:1019B000206801F00EFA6021206801F04EF9CEE7B0
:1019C000CA684968206801F0F3F940212068F4E70B
:1019D000226801461046F0E770472DE9F0410446C1
:1019E0000068C66805694FF00007A90713D5B1075D
:1019F00011D5F91E016101202077206880698007D8
:101A0000204602D0FFF7E8FF04E000F0A3F82046EC
:101A100000F035F92777680716D5700714D52168C7
:101A20006FF004000861022020772068806910F4BC
:101A3000407F204602D0FFF7CFFF04E000F08AF895
:101A4000204600F01CF92777280715D5300713D555
:101A500021686FF008000861042020772068C069C1
:101A60008007204602D0FFF7B7FF04E000F072F8CD
:101A7000204600F004F92777E80616D5F00614D5BD
:101A800021686FF010000861082020772068C06985
:101A900010F4407F204602D0FFF79EFF04E000F0E4
:101AA00059F8204600F0EBF82777E80708D0F00750
:101AB00006D021686FF001000861204600F066F949
:101AC000280608D5300606D521686FF08000086129
:101AD0002046FFF771FE680608D5700606D5216816
:101AE0006FF040000861204600F05AF9A8060AD5B8
:101AF000B00608D521686FF0200008612046BDE8D7
:101B0000F041FFF75ABEBDE8F081000000B585B096
:101B1000002100910191029103910068B0F1804F82
:101B200011D10A48816941F00401816180696946E7
:101B300000F0040004900420009002200190039023
:101B40000348FFF7E3F905B000BD000000100240B4
:101B500000080140704770B5044690F83C0000262C
:101B60000D4601280FD0012084F83C006AB1042AF8
:101B70001DD0082A2FD00C2A3FD00126002084F83F
:101B80003C00304670BD022070BD206801F06EF848
:101B90002068816941F0080181612068816921F034
:101BA00004018161206881692A69114311E020687C
:101BB00001F084F82068816941F400618161206846
:101BC000816921F480618161206881692A6941EA23
:101BD00002218161D2E7206801F09CF82068C16988
:101BE00041F00801C1612068C16921F00401C161AF
:101BF0002068C1692A69114311E0206801F0B6F834
:101C00002068C16941F40061C1612068C16921F4A3
:101C10008061C1612068C1692A6941EA0221C1610C
:101C2000ACE710B5040003D094F83D0010B107E014
:101C3000012010BD002084F83C00204600F01EF872
:101C4000022084F83D00211D206800F0B3FF012030
:101C500084F8460084F83E0084F83F0084F8400091
:101C600084F8410084F8420084F8430084F844007A
:101C700084F8450084F83D00002010BD704770478F
:101C800010B50446022249B104290ED0082913D008
:101C900094F84100012816D0012010BD94F83E00B0
:101CA0000128F9D184F83E200FE094F83F00012884
:101CB000F2D184F83F2008E094F840000128EBD1ED
:101CC00084F8402001E084F841200122206800F0DF
:101CD000ADFF0F492068884203D1426C42F40042B4
:101CE00042642068884208D0B0F1804F05D009498D
:101CF000884202D00849884204D1816801F0070176
:101D0000062903D0016841F001010160002010BDE7
:101D1000002C0140000400400008004030B504469B
:101D20000D460068002200F081FF174B41F21111AF
:101D300020688A10984209D1036A0B4206D1036ACF
:101D4000134203D1436C23F4004343642068036AC5
:101D50000B4206D1016A114203D1016821F0010151
:101D6000016001203DB1042D08D0082D09D084F870
:101D70004100002030BD84F83E00FAE784F83F00BF
:101D8000F7E784F84000F4E7002C014000680349BD
:101D9000884201D1FFF7BAB970470000000800403F
:101DA000704770B5040004D094F84100002510B1CC
:101DB00006E0012070BD84F84050204600F024F871
:101DC000242084F841002068C16821F40051C160DA
:101DD000204601F037F82068016921F49041016143
:101DE0002068416921F02A0141612068C16841F4FD
:101DF0000051C1606564202084F8410084F84200ED
:101E00006563002070BD000070B586B000240094AA
:101E100001940294039403682648254E022103226C
:101E20000515B3421ED1836943F4804383618369FE
:101E300003F480430493836943F00403836180695E
:101E40001D4E00F0040004900802CDE90001039249
:101E500069463046FFF75AF8CDE9005469463046E6
:101E6000029420E0154EB3421FD1C36943F480238E
:101E7000C361C36903F480230493836943F00803B7
:101E800083618069CDE9005100F00800CDE90320AD
:101E90000B4D69462846FFF739F8E814CDE90004F0
:101EA000694628460294FFF731F806B070BD00007D
:101EB0000038014000100240000801400048004086
:101EC000000C014090F84230202B01D002207047D6
:101ED00021B11AB10023036301F010B8012070474B
:101EE0002DE9F843044690F84100984616460D4601
:101EF000202802D00220BDE8F88385B17EB1002001
:101F00006064212084F84100FFF7FAF8A684814636
:101F1000E684A0682027B0F5805F02D003E00120AE
:101F2000E9E7206910B12E4600250EE000260CE0FE
:101F30008021204600F0FDFFA8B9C6B116F8010BBC
:101F400021684860E08C401EE084E08C4B464FF0F6
:101F50000002CDF800800028EAD14FF04001204671
:101F600000F0E7FF40B184F841700320C3E735F883
:101F7000020BC0F30800E3E784F841700020BAE7E1
:101F8000FEE7000010B59CB0044618220BA115A86E
:101F9000FEF7BCFB54220F496846FEF7B7FB002151
:101FA00015A8425CA24203D15DF821001CB010BD0F
:101FB000491C1529F5D308A0F8E70000A2E2220287
:101FC000C2E0A8906898B030187A10385A424A5245
:101FD00000000000786800084572726F720000000F
:101FE0002DE9F84FDFF8FC9000224846DFF8F8C0F2
:101FF000D0E90261D9E900400B46341B61EB0001D6
:10200000501EB4EB0C0C1546174671F1000C5ED354
:10201000DFF8D8804FF0000CB8EB04047CEB010C27
:1020200055D34C46D4E904C1BCEB060661EB030171
:102030002F4BF31A71F1000349D3DFF8B8C0002326
:10204000BCEB06068B4142D300234FF00309EA465E
:1020500009EB430808F1010C04EBCC0104EBC80CBC
:10206000D1E90061DCE9008CB6EB080661EB0C01FC
:102070005206DFF88480120E6D1C4FF0000CB8EB96
:1020800006067CEB010C01D242F00102082D04D1BE
:102090000AF80720002215467F1C5B1C202BD7DB8B
:1020A0009DF80110C943CBB28DF801309DF80310A3
:1020B000C943CAB28DF803209DF80010994203D19C
:1020C0009DF80230934204D00C4A00211160BDE813
:1020D000F88F084600F00CFD9DF8020000F008FDA6
:1020E0000020F4E7F811002000127A008096980092
:1020F000E0673500C03B470340420F00C8000020A6
:102100002DE9F04102F06EF8224C234FD4E904236C
:10211000861A61EB030200231D46BE1B934100D2C9
:102120002560C4E904011D4A236802EBC3065B1C59
:10213000C6E900012360042B04D0442B27D1FFF70C
:102140004FFF23E0D2E90260D2E900370146F31ADB
:1021500060EB0700124FDF1B70F1000717D3DFF8A9
:1021600044C00027BCEB0303874110D3D2E904022B
:10217000801B62EB01020C49411A72F1000106D387
:102180004FEAAC030021181A914100D32560BDE845
:10219000F0810000C800002000E1F505F8110020E2
:1021A00000127A008096980080841E00704700001C
:1021B00070B5054608480C46D0E90110814202D1AD
:1021C0004FF0FF3070BDFEF767FE2870FEF764FE2B
:1021D0002070002070BD0000C80000202DE9FC41E7
:1021E000074600208DF804008DF8000005461420F5
:1021F00000F0C8FF694601A8FFF7DAFF0028F6D112
:102200009DF80000A228F2D10A2000F0BBFFFEF7E3
:10221000B9FC0024142000E00A2000F0B3FF694656
:1022200001A8FFF7C5FF0028F6D19DF80000FFF7D1
:10223000A9FE0646C4F1020003F0B3FB02460B46BA
:102240000020174900F0BEFF03F07CFB31783039E5
:1022500001FB0055FEF796FC022C04D0641C032CF5
:10226000D8DB142002E03D60FBE70A2000F08AFF83
:10227000694601A8FFF79CFF0028F6D1FEF782FC13
:102280009DF80000022804D0222804D0C22804D0DF
:102290000020BDE8FC810120FBE70320F9E70000F6
:1022A0000000244010B586B000F0FEFA00F079FA84
:1022B000FEF784FCFFF77AFFFEF7C6FB012002F071
:1022C0001BFC354C00231A461946606302F0B8FC2B
:1022D000012002F011FC00231A461946A06302F007
:1022E000AFFC2E4B0DF1080C0FCB8CE80F0000213A
:1022F00002A800F053FFA06400220C21012002F08C
:1023000006FC206304F114000024CDE900402346BC
:10231000302223A1284802F0D5FE1F4800231830A0
:10232000CDE900403C2225A1284802F0CBFE1A4806
:1023300000231C30CDE900403C2225A1284802F0B2
:10234000C1FE154800232030CDE90040322225A1EE
:102350002A4802F0B7FE104800232430CDE900409F
:10236000322227A12B4802F0ADFE0B480023283073
:10237000CDE90040322228A12D4802F0A3FE0649F3
:1023800001202C31CDE900010023802229A12D4814
:1023900002F098FE06B010BD000000204C6200085C
:1023A0007461736B5F6765745F73656E736F725F83
:1023B00064617461000000006D4300087461736B18
:1023C0005F6F6C65645F73686F770000BD440008E1
:1023D0007461736B5F7468726573686F6C647300AB
:1023E000C14500087461736B5F74656D705F7468DC
:1023F000726573686F6C64730000000049450008E3
:102400007461736B5F68756D5F7468726573686F14
:102410006C647300C54300087461736B5F6C69671B
:1024200068745F7468726573686F6C647300000031
:102430002D4400087461736B5F65737038323636F3
:1024400000000000294200082DE9F04786B0002670
:1024500045480096019602960396816941F0100165
:102460008161816901F010010491816941F02001CD
:102470008161816901F020010491816941F00401C9
:102480008161816901F004010491816941F00801D1
:1024900081618069354F00F008004FF400540490CA
:1024A000002221463846FEF726FEDFF8C4900022BF
:1024B00072214846FEF71FFE4FF480780122414604
:1024C0004846FEF718FEDFF8ACA000224FF4367144
:1024D0005046FEF710FE0094022501240395CDE935
:1024E000014669463846FEF711FD1127CDE9005730
:1024F00069464846CDE90245FEF708FD7020039580
:102500008DE8510069464846FEF700FD2003009023
:102510001948CDE9010469465046FEF7F7FCCDE9BC
:10252000008469464846CDE90245FEF7EFFCD82015
:10253000CDE90007CDE9026569465046FEF7E6FCA5
:10254000600203958DE8510069465046FEF7DEFCB7
:10255000002205212820FEF771FE2820FEF760FEEC
:1025600006B0BDE8F08700000010024000100140F6
:1025700000080140000C01400000311010B58EB081
:1025800000240794089409940A940B941C2168462B
:102590000C94FEF717F91D484FF080410160472168
:1025A000C0E901146321C0E903148461FFF73AF91B
:1025B00008B1FEF76FFC4FF48050079007A913484D
:1025C000FFF79CF908B1FEF765FC1048FFF729FBFF
:1025D00008B1FEF75FFC0B940BA90C480C94FFF7B5
:1025E000EDF808B1FEF756FC6020CDE90004029436
:1025F0000822694605480494FFF7ADFA08B1FEF7D2
:1026000049FC0248FFF782FA0EB010BD64030020B7
:102610000C4810B50A4901604FF4E13141600021D6
:1026200081600C22C160C0E904128161C161FFF7C1
:10263000B8FB002803D0BDE81040FEF72BBC10BD4E
:1026400000380140AC0300200C4810B50A49016075
:102650004FF4E1314160002181600C22C160C0E98A
:1026600004128161C161FFF79CFB002803D0BDE823
:102670001040FEF70FBC10BD00480040F4030020DE
:10268000FEE7000010B510210448FEF72FFD0446B8
:102690000A2001F0F1FF204610BD0000000C0140AF
:1026A00010B5012000F06EF8012000F05DF8FFF792
:1026B000E9FF0446002000F057F8204610BD70B531
:1026C0000025012000F05EF800248026012000F0A3
:1026D0004BF8FFF7D7FF012802D126FA04F0054393
:1026E000002000F041F8641CE4B2082CEED3284628
:1026F00070BD10B500F046F8012000F035F8BDE8D7
:102700001040002000F030B870B500240546802647
:1027100026FA04F0284000F035F8012000F024F8F3
:10272000002000F021F8641CE4B2082CF0D370BD46
:1027300010B5012000F026F8012000F015F8002067
:1027400000F020F8BDE81040002000F00DB810B5F2
:10275000002000F017F8012000F006F8BDE8104056
:10276000012000F00FB8000010B50246082104480F
:10277000FEF7C1FCBDE810400A2001F07DBF00005B
:10278000000C014010B5024610210448FEF7B3FCCE
:10279000BDE810400A2001F06FBF0000000C0140AE
:1027A000FEE770B500240021204600F0DAF800258D
:1027B000002000F08CF96D1CEDB2802DF8D3641C64
:1027C000E4B2082CEFD370BD10B5FFF73DFE064C08
:1027D000012240212046FEF78EFC20460122BDE862
:1027E00010408021FEF787BC000C01402DE9F0412C
:1027F0000024144D0746802626FA04F0384201D002
:10280000012200E0002280212846FEF774FC01220C
:1028100040212846FEF76FFC002240212846FEF7A3
:102820006AFC641CE4B2082CE6D30122402128464D
:10283000FEF761FC2846BDE8F04100224021FEF78A
:102840005ABC0000000C014010B50B4C0122802145
:102850002046FEF750FC012240212046FEF74BFCAB
:10286000002280212046FEF746FC20460022BDE8DB
:1028700010404021FEF73FBC000C014010B5094C50
:10288000002280212046FEF736FC0122402120460E
:10289000FEF731FC20460122BDE810408021FEF702
:1028A0002ABC0000000C014010B500204FF47A72E1
:1028B0000021491C9142FCD3401C9042F8D3FFF701
:1028C00083FFAE2000F0F2F8D52000F0EFF8802072
:1028D00000F0ECF8A82000F0E9F83F2000F0E6F85E
:1028E000D32000F0E3F8002000F0E0F8402000F0F2
:1028F000DDF8A12000F0DAF8C82000F0D7F8DA20DF
:1029000000F0D4F8122000F0D1F8812000F0CEF8C9
:10291000CF2000F0CBF8D92000F0C8F8F12000F06B
:10292000C5F8DB2000F0C2F8302000F0BFF8A4208A
:1029300000F0BCF8A62000F0B9F88D2000F0B6F841
:10294000142000F0B3F8AF2000F0B0F8BDE810405C
:10295000FFF727BF0246012000E05043491EFCD28A
:10296000704710B50C4640F0B00000F09FF8102002
:1029700040EA141000F09AF804F00F00BDE810408F
:1029800000F094B82DE9F0410746CE004000083E23
:10299000801E15464FF0FF38F1B2C0B2FFF7E1FFDD
:1029A0001148002400EB05152819A0F5805090F877
:1029B000000E00F08CF8641CE4B2082CF4D308EB91
:1029C0004700F1B2C0B2FFF7CCFF00242819A0F5F0
:1029D000805090F8080E00F07AF8641CE4B2082CDD
:1029E000F4D3BDE8F0810000866200082DE9F047CD
:1029F00000241D461646884681460A2713E0291BF7
:102A00000A20491EFFF7A6FFB6FBF0F0B0FBF7F176
:102A100007FB110208EB0400C1B248463032FFF751
:102A2000B1FF641CE4B2AC42E9D3BDE8F0872DE904
:102A3000F0471E4614008846814604D42B22FFF737
:102A4000A1FF254603E02D22FFF79CFF65420024ED
:102A50000A2714E0311B0A20491EFFF77BFFB5FB54
:102A6000F0F0B0FBF7F107FB110208EB0400401C8B
:102A7000C1B248463032FFF785FF641CE4B2B4426D
:102A8000E8D3BDE8F0872DE9F04115460E4607462C
:102A9000002406E03019C1B23846FFF773FF641C0A
:102AA000E4B22A5D002AF5D1BDE8F08110B50446F4
:102AB000FFF7CAFE7820FFF799FE0020FFF796FE89
:102AC0002046FFF793FEBDE81040FFF7D7BE10B5D4
:102AD0000446FFF7B9FE7820FFF788FE4020FFF795
:102AE00085FE2046FFF782FEBDE81040FFF7C6BE18
:102AF000084B10B599680A46491CCC1701EB546481
:102B000024F07F04091B5C68A14202D0024CA0544F
:102B1000996010BDC80000207811002010B5502029
:102B200080F31188BFF34F8FBFF36F8F02F030FB3C
:102B300018B104494FF080500860002080F31188DC
:102B400010BD000004ED00E030B58FB028216846CC
:102B5000FDF738FE14210AA8FDF734FE0121080410
:102B6000CDE900100024029402250491CDE907501C
:102B70004FF4E01009906846FEF78EFC08B172B67B
:102B8000FEE70F20CDE90A054FF48060CDE90C4047
:102B900002210AA80E94FEF783FB002801D072B62A
:102BA000FEE70FB030BD70470148FEF716BF0000CA
:102BB0003C040020F0B50268194B1A4C1A4D4FF036
:102BC0008047984205D0B84203D0A04201D0A84225
:102BD00003D122F070064A683243984205D0B842C9
:102BE00003D0A04201D0A84203D122F44074CA68A5
:102BF00022434C6922F08002224302608A68C2624A
:102C00000A688262984201D1096901630121416128
:102C10000169C90703D0016921F001010161F0BD1B
:102C2000002C0140000400400008004010B501F0F5
:102C30001F030121046A99408C430462016A9A408F
:102C40001143016210BD10B5846842EA032224F4E6
:102C50007F440A432243826010BD826822F07002E2
:102C60000A4342F0070181607047000030B5036AF3
:102C7000026A22F0010202624268846924F073054C
:102C80000C682C4323F002058B682B430A4DA842A5
:102C90000BD123F00805CB6822F440722B434D6919
:102CA00023F0040315438A692A434260846149681A
:102CB0004163036230BD0000002C014030B5026A60
:102CC000036A23F010030362436884690D6824F4E7
:102CD000E64444EA05248D6822F0200242EA051207
:102CE0000B4DA8420ED1CD6822F0800242EA0512B7
:102CF0004D6923F4406343EA85038D6922F0400265
:102D000043EA85034360846149688163026230BDA0
:102D1000002C014030B5036A026A22F4807202621C
:102D20004268C46923F4007324F073050C682C43D3
:102D30008D6843EA05230C4DA8420ED1CD6823F4DB
:102D4000006343EA05234D6922F4405242EA05122A
:102D50008D6923F4806342EA05124260C4614968C8
:102D6000C163036230BD0000002C014030B5046A2D
:102D7000026A22F4805202624268C3690D6823F439
:102D8000E64343EA05238D6824F4005444EA0534FD
:102D9000064DA84204D14D6922F4804242EA8512D0
:102DA0004260C36149680164046230BD002C014087
:102DB00010B5036A046A24F001040462846924F0F3
:102DC000F00444EA021423F00A020A438461026216
:102DD00010BD10B5036A046A24F01004046284690B
:102DE00023F0A00324F4704444EA023243EA0111C0
:102DF0008261016210BD01680C3151E8002F22F49C
:102E0000907241E80023002BF5D10168143151E89C
:102E1000002F22F0010241E80023002BF5D1016BC5
:102E2000012909D101680C3151E8002F22F010026C
:102E300041E80023002BF5D1202180F84210002129
:102E40000163704770B5044600680169E26821F4C7
:102E50004051114301612169A06808436169084339
:102E60002168CA6841F20C639A430243CA60206831
:102E70004169A26921F44071114341611E492068F2
:102E8000884202D1FEF7D2FA01E0FEF7BFFA00EB6A
:102E9000C00101EB0012606864218000B2FBF0F316
:102EA000B3FBF1F36FF018067343B2FBF0F5B2FB1E
:102EB000F0F605EB8305322303EB0515B5FBF1F5C1
:102EC000B6FBF1F605F0F00505EB0615B2FBF0F6E2
:102ED000B2FBF0F0B0FBF1F06FF01802504306EBDC
:102EE000800003EB0010B0FBF1F0216800F00F0050
:102EF0002844886070BD00000038014081628285EE
:102F0000C28500214164222180F84210016921B16B
:102F10000168CA6842F48072CA6001684A6942F076
:102F200001024A610068C16841F02001C1600020CF
:102F300070472DE9F843984617460D460446089E0B
:102F400024E0701C22D0FEF7DBF8A0EB0800B042B2
:102F50001AD8CEB12068C168490717D5802D15D081
:102F6000402D13D00168C94309070FD4016800251B
:102F7000406800902046FFF73EFF0820606484F818
:102F800040500120BDE8F8830320FBE7206800687B
:102F900035EA000004D00020B842D2D00020F1E78A
:102FA0000120F9E7FEE7490050EAC12018BF0420DC
:102FB0004A0D18BF40F0010040F2FF72B2EB515FC2
:102FC00008BF40F00200012808BF0520704709072C
:102FD000090E002804DB00F1E02080F8001470479F
:102FE00000F00F0000F1E02080F8141D70472DE97B
:102FF000F0414F1E00EBC7010446D1E90001154620
:103000001E4637F006020DD02A46334602F030FD48
:103010007F1E04EBC703D3E9002302F07FFA37F0E9
:103020000602F1D1022F25D0042F13D0062F18BF8E
:10303000BDE8F0812A46334602F01AFDD4E90A239E
:1030400002F06CFA2A46334602F012FDD4E9082356
:1030500002F064FA2A46334602F00AFDD4E9062358
:1030600002F05CFA2A46334602F002FDD4E904235A
:1030700002F054FA2A46334602F0FAFCD4E902235D
:1030800002F04CFA2A46334602F0F2FCD4E900235F
:10309000BDE8F04102F042BA002213461046014951
:1030A00002F0F8BA0000F03F02F038BA00221346EE
:1030B0001046114602F0EEBA40F2013200204FF005
:1030C000E04103F07DB80000024A0020110703F040
:1030D00077B8000001FDFFFF30380A2801D2012037
:1030E00070470020704700000C4810B500F5807153
:1030F000A1F1800208608020888009494A60087038
:10310000FDF7B6FE06490122091F0648FEF7DAFE62
:10311000BDE810406420FDF7D5BE00001814002063
:10312000E4000020AC03002010B5064C0122102161
:103130002046FDF7E0FF20460022BDE81040202198
:10314000FDF7D9BF00080140FDF7E8FFFFF7FCFCE1
:10315000FFF77AF9FFF75CFAFFF710FAFFF774FA56
:10316000FFF7A0F800F015F8FEE770B5054600245B
:103170004FF47A7603E0304601F07EFA641CAC42EC
:10318000F9DB70BD10B500B9012001F059FB00203A
:1031900010BD10B501F0F0FB002010BD38B5D0E92E
:1031A000011204683AB1C3682BB100200090204698
:1031B00001F0CEFC38BD2046BDE83840002201F0C9
:1031C000A6BC00002DE9F04D1D460C4698B01746F0
:1031D00021F0004123F00043002814BF4FF0010C00
:1031E0004FF0000C0CEB440CFE4A0CEB02064FEACD
:1031F000620C66452BD33E0018BF012606EB450640
:103200001644F94A964222D3F84A53EA070C02D0F0
:10321000944205D148B918B000201146BDE8F08DA0
:10322000002808BF4FF0000C01D04FF0010C0CEB50
:10323000440212F5001F0AD8002F14BF4FF0010CF2
:103240004FF0000C0CEB450212F5001F07D918B027
:103250003A462B462146BDE8F04DFFF725BF002238
:10326000DFF88CA3002CB8BF534526DADFF884C3FF
:103270006345A8BF022220DADFF870C39C451CDC3E
:10328000DFF874C30CEB235CBCF1140F08DDCCF148
:10329000340627FA06FC0CFA06F6BE420DD108E009
:1032A0005FB9CCF1140623FA06FC0CFA06F69E422E
:1032B00003D10CF00102C2F1020251EA000C19D153
:1032C000002D17DA002C18BF022A01D0012A07D0DE
:1032D0000220FDF7A6FA18B0BDE8F04DFFF7DCBEFE
:1032E0000220FDF79EFAFFF7D7FE18B081F00041EB
:1032F000BDE8F08DB7F1000C6CD1534525D104F138
:10330000804212F5801201BF00280020B74918B092
:1033100008BFBDE8F08DB548884207DC002DA1BF8D
:103320006046294618B0BDE8F08D07E0281E05DA92
:1033300080F0004118B06046BDE8F08DAF49794497
:10334000D1E9000118B0BDE8F08DDFF8A0C26345F7
:1033500025D1002D1FDA19B1514512D1D8B909E094
:10336000002840F0EC82A24A214618B062F31E0108
:10337000BDE8F08D0020214618B060F31E01BDE8C5
:10338000F08D08DA18B02346BDE8F04D0246002063
:10339000614602F07FB918B02146BDE8F08D514575
:1033A00018DAB5F1804F0DD0A5F1005CBCF1FF5CDF
:1033B00010D1B4F1000C0DDB18B06146BDE8F04D42
:1033C00000F0EABE234618B00246BDE8F04D1946AB
:1033D00002F04EBB060024F0004C3BD1D9B1514560
:1033E00033D1002C06DD002DA1BF0020514618B0BE
:1033F000BDE8F08D002C01DD002D1BDB002C13DA65
:10340000002D11DB012A4FF0000014BF78497C49E0
:1034100018B0BDE8F08D022A18BF002C0AD0012A8E
:1034200008D1002C06DA0AE0002CB8BF002D11DA12
:10343000012A04D0002018B00146BDE8F08D18B074
:1034400000204FF00041BDE8F08DA1F14050B0F1F7
:103450007F601AD0012000EBE47050EA020421D012
:10346000624C521E4FF0000B104304BF4FF0000B94
:10347000644C654883427CDD644A654893421FDDA5
:10348000884217DB002D25DB37E0002C00DA4AB13B
:10349000022A0CBF01204FF0FF3018B0BDE8F04DFC
:1034A00002F07FBA0120FDF7BCF918B0BDE8F04D7D
:1034B000FFF7FCBD4D4A8A4202DC002D0ADC1CE00D
:1034C000814202DA002D18DA04E0484B994220DDEF
:1034D000002D12DD0220FDF7A4F9FFF7EDFD0546F2
:1034E0000E46002253465846214602F0C1FA18B053
:1034F00066F31E012846BDE8F08D0220FDF791F924
:10350000FFF7E2FD0A46214618B062F31E01BDE84E
:10351000F08D00223046614602F0D0FC80460E4617
:103520006FF0010202F04CFE4FF05532394B02F0C1
:10353000D3FB4246334602F09BFA0022364B02F0A0
:10354000CBFB82464246334604911046194602F0B0
:103550008FFA5246049B02F08BFA8A4600904FF095
:10356000C0422E4B4046314602F082FA2C4A2B4B89
:1035700000E027E0CDE906015146009802F078FA14
:1035800082460191274A284B4046314602F070FAA4
:103590005246019B02F092FC82460B460246059180
:1035A000DDE9060101F0BAFFDDE9062300268846C1
:1035B000304602F083FC5246059B02F08DFB02462A
:1035C00000F07EB90020B1F5801F07DA35223046C1
:1035D000614602F0F5FD06466FF0340000EB215025
:1035E00024E00000FFFF1F00FFFF0F000000F03F7E
:1035F0000000F07F0000404301FCFFFF2636000082
:103600000000F0FF0000F0BF0000E0410000F043C8
:10361000FFFFEF3F5555D53F0000E03F4715F73F0F
:10362000FE822B6544DF5DF80BAE543EA0F2FF3006
:103630000190C1F3130040F07F6141F040510291CD
:10364000FE498842D8BF002004DDFD498142C8BF41
:10365000012001DD0D9008E000200D900198401C34
:1036600001900298A0F5801002900299F5487844E4
:103670000B910D9900EBC100D0E900230F93304668
:103680000A920B9902F01AFCCDE90601DDE90A2144
:1036900030460F9B01F042FF02460B460020EA49EC
:1036A00001F0F8FF059102460B460090DDE90601A6
:1036B00002F0DEF91490E5488A464FF0000878449D
:1036C0000299006812904FF0005040EA61010D9895
:1036D0000F9B01EB804000F5002109910A9A129896
:1036E00002F0ECFB32460B9B02F0F6FA42465346E0
:1036F00002F0BEF90646029140465146099B129AD5
:1037000002F0B6F9DDE9062302F0E6FA3246029B42
:1037100002F0D4FB059B009A02F0AAF90091149ADA
:10372000049053461046194602F0A2F90646024696
:10373000C7480B46029106217844FFF758FCCDE9B3
:103740000510029B32461046194602F091F9DDE958
:10375000053202F08DF9059106465346404619465A
:10376000149A01F0DBFE009B049A02F081F93246C4
:10377000059B01F0D3FECDE90510424653461046A5
:10378000194602F075F90022B24B02910A9001F03D
:10379000C5FEDDE9053201F0C1FE0E464246AD4BE5
:1037A000404602F08BFB029B0A9A02F087FBDDE9A0
:1037B000053202F091FA424602910A9033461046D1
:1037C000514602F055F9CDE906015346149A029983
:1037D0000A9802F04DF98A46029033464246009913
:1037E000049802F045F95346029A01F097FE82468A
:1037F0000B4602460591DDE9060101F08FFEDDE989
:10380000062300208846064602F058FB5246059BD8
:1038100002F062FA824609914FF060428E4B3046C8
:10382000414602F025F9049006918C4A8A4B504695
:10383000099902F01DF982460291894A894B304666
:10384000414602F015F95246029B01F067FE864B95
:103850007B440D9A03EBC203D3E9002301F05EFE23
:103860000E900791019802F09CF80591DDE906138E
:1038700082460E9A049801F051FE7C4A7A440D9BD0
:1038800002EBC303D3E900230093029201F046FE4A
:103890005246059B01F042FE0026884652463046BD
:1038A000059B02F00BFB009B029A02F007FB069BB4
:1038B000049A02F003FB079B0E9A02F00DFA0246EF
:1038C00000200B4602903846294602F0D1F8824685
:1038D00001912B4638461946029A02F0EFFA324619
:1038E000434602F0C5F85246019B01F017FE074619
:1038F0008A46324643462946029802F0B9F8054600
:103900000E463A46534601F009FE594A884691420E
:1039100021DBA8EB020353EA000210D12A4633460A
:1039200002F0CCFACDE90401524A534B38465146D5
:1039300001F0F4FDDDE9042302F098F921D2022020
:10394000FCF76FFFFFF7B8FB0A46214618B062F399
:103950001E01BDE8F08D494B28F000429A4210D379
:10396000474A08EB020353EA00027FF4C6AD2A4639
:10397000334602F0A3FA3A46534602F077F97FF64F
:10398000BCAD0022019228F000403E493E4A01EBC6
:103990002051824223DA481C4FF4801121FA00F0B2
:1039A00040443A4AC0F30A517A44394BA1F2FF31FC
:1039B000CB4020EA0303C0F3130040F48010C1F1B0
:1039C0001401C84012680190B8F1000FBCBF40421A
:1039D00001902846314602F071FA05460E462A4605
:1039E00033463846514601F099FD4FF000084246F3
:1039F000284B4046059102F03BF8CDE90601264AE6
:103A0000264B4046059902F033F8009102902A4671
:103A100033464046059902F051FA3A46534602F0C1
:103A20005BF91F4A1F4B02F023F8009B029A01F03A
:103A300075FD0746884602460B4635E08E98030022
:103A40007AB60B006E3200000000F03FA632000094
:103A5000D43100000000084009C7EE3FFD033ADC06
:103A6000F5015B14E02F3EBEAC300000703000006A
:103A700000009040FE822B654715973C00CC90409B
:103A800000346F3F01FCFFFF0000E03FBC2F00004F
:103A9000FFFF0F00432EE63F396CA80C615C20BE8F
:103AA000EF39FAFE422EE63FDDE9060101F036FD70
:103AB000DDE9062305460E4602F000FA3A46434683
:103AC00002F00AF90F462A4633460090104619467E
:103AD00001F0CEFF824602462E4888460B4605215D
:103AE0007844FFF784FA5246434601F0C1FF2A4664
:103AF000334602F0F1F880468A463B462846314676
:103B0000009A01F0B5FF3B46009A01F007FD0691CF
:103B1000009000224FF080434046514602F0CEF91B
:103B20000F460C90424653462846314601F0A0FF0E
:103B30003B460C9A01F0AEFD069B009A02F0BEF9DE
:103B40002A46334602F0BAF90022134B02F0C4F8B9
:103B5000054601980E4601EB00510815002810DCBF
:103B600028463146019A02F02BFBFFF71CFA042885
:103B700008BFFFF7A9FA28463146019A02F020FB58
:103B800005460B4618B02A4658462146BDE8F04D7A
:103B900001F06EBF5C2E00000000F03F2DE9F04107
:103BA000184C0F460546E6682068001D00F080FDB1
:103BB00038B9206890F82C10012088402169814391
:103BC0002161681C07D137B12168BDE8F0410E487A
:103BD000091D00F0B1BD20683544B542456021683B
:103BE00005D2A06BBDE8F041091D00F08DBD606BF2
:103BF000091D00F089FDA06A854200D2A562BDE8DA
:103C0000F08100005C000020600500202DE9F041FB
:103C1000054600F09DFD2E4CA068401CA060206869
:103C20002C4F10B1606940B32DE02560A0680128D9
:103C300029D1002606EB860007EB800000F056FD38
:103C4000761C072EF6D323488C3000F04FFD214818
:103C5000A03000F04BFD1F48B43000F047FD1D4878
:103C6000C83000F043FD1B48DC3000F03FFD194830
:103C70008C3060631430A06305E02068E96AC06A94
:103C8000884200D82560606A401C6062E96A0120B1
:103C9000226988401043206101EB810007EB80001E
:103CA000291D00F049FD00F073FD606900280CD06B
:103CB0002068E96AC06A884207D207494FF08050FD
:103CC0000860BFF34F8FBFF36F8FBDE8F081000036
:103CD0005C0000208404002004ED00E030B4026C9D
:103CE0000B46002A0BD0C1681144C1608468A14210
:103CF00001D30168C16030BC1846FCF7C2BC30BCBF
:103D000070472DE9F041856B174604460026026C8A
:103D100082B1C7B1E068FCF7B4FCE168206C091A15
:103D2000E1602268914202D2A168081AE060022F85
:103D300016D017E02068A8B9A06801F08FFA0646EF
:103D40000020A0600EE06068FCF79BFC216C6068BE
:103D500008446060A168884204D32068606001E084
:103D600005B16D1E6D1CA5633046BDE8F08110B530
:103D7000044690F8510058B101280CD002280FD009
:103D8000502080F31188BFF34F8FBFF36F8FFEE792
:103D9000206B00F011FD2046BDE8104000F00CBD86
:103DA00010BD000010484FF44061420706D0C01D0E
:103DB0000D4920F00700411AC1F540610B4A00236C
:103DC0000144C2E900030839183A21F007011160E3
:103DD0004B600B600B1AC0E9001393604FF000407A
:103DE000536050617047000074050020B00000204F
:103DF000144E154CA6F1C8074FF08058DFF84C90D0
:103E000012E000BF00F0A4FCF068C568281D00F0B7
:103E10004FFCA068401EA0606068401E606000F01B
:103E2000B7FC2846FFF7A3FF60680028EAD138688E
:103E30000128F9D9C9F80080BFF34F8FBFF36F8F06
:103E4000F2E700004C0500205C00002004ED00E0DB
:103E5000002807D00021816001600B460A46C1603E
:103E600000F0EEBE70470346009829B10260C0E939
:103E70000F31012100F0A0BE0060F8E72DE9F05FEE
:103E80008846DDE90B941546834691009A460A9EC2
:103E9000A522206BFCF76CFC6FF00301206B01EB9B
:103EA0008501084420F00707780707D0502080F3E9
:103EB0001188BFF34F8FBFF36F8FFEE70025B8F176
:103EC000000F0FD05FF00000221818F8001082F8E1
:103ED000341018F8001011B1401C1028F4D384F8E5
:103EE000435001E084F83450072E00D30626E662E2
:103EF000C4E91165201D00F004FC04F1180000F075
:103F000000FC2461C6F107006462A061E56484F8E6
:103F1000505052465946384600F010F92060B9F129
:103F2000000F01D0C9F80040BDE8F09F30B511493D
:103F300000E011460A688242FBD34B685C18844259
:103F400003D1406818444860084643681C189442EE
:103F500009D1084C183C2468A24209D052681A447E
:103F600042600A6812680260814200D0086030BD79
:103F70000460F9E7B000002010B5044600F0E8FB4B
:103F8000A06B28B15FF0000400F002FC204610BDD9
:103F90000124F9E70648416B096829B1416BC968FA
:103FA000C9684968816270474FF0FF31FAE7000045
:103FB0005C00002008484068401C4FF0500080F32F
:103FC000118804D0BFF34F8FBFF36F8FFEE7BFF3AD
:103FD0004F8FBFF36F8FFEE7B80000202DE9F0414F
:103FE000044600F0B5FB94F9455004F1240609E0BD
:103FF000606A48B1304601F0C3F908B100F04EFCE8
:104000006D1E6DB2002DF3DC4FF0FF3684F8456075
:1040100000F0BEFB00F09CFB94F9445004F1100743
:1040200009E0206948B1384601F0AAF908B100F06A
:1040300035FC6D1E6DB2002DF3DC84F84460BDE8E4
:10404000F04100F0A5BB00002DE9F0410546002736
:1040500000F0C8FC324E306808B9FFF7A3FE706963
:1040600005424ED1C5B3083568070ED005F00700EC
:10407000C0F108000544680707D0502080F311887C
:10408000BFF34F8FBFF36F8FFEE72DB3706885428C
:1040900037D82348183001460C6801E020460C460A
:1040A0006168A94202D221680029F7D131688C42A7
:1040B00027D007682168016060680837411B102914
:1040C0000FD96019420708D0502080F31188BFF340
:1040D0004F8FBFF36F8FFEE713E041606560FFF71E
:1040E00025FF61687068401A7060B268904200D223
:1040F000B060706901430020C4E90001F068401C11
:10410000F06001F077F9780707D0502080F311882C
:10411000BFF34F8FBFF36F8FFEE73846BDE8F081E6
:10412000980000200449086818B10868826C521C85
:1041300082640868704700005C00002010B5031F0F
:104140004FF080741C601B1F21F001011960191FC2
:10415000024B0B60143940380A6010BDB53F0008AF
:1041600010B5064C002210212046FCF7C4FF204663
:104170000122BDE810402021FCF7BDBF000801402E
:1041800010B5044608210348FDF77AFD0148006890
:10419000C46310BD640300202DE9F04106460F46BC
:1041A00001F0A6FD041E0D4618BF0120284320F093
:1041B0000040C0F17F6000F1E040C00F0ED0301C25
:1041C00018BF0120384320F00040C0F17F6000F1AB
:1041D000E040C00F04BF0120FCF723FB2046294626
:1041E000BDE8F0812DE9F0410D4CFCF789FF226814
:1041F0000023516AD26A0B4DA0FB054703FB0575EE
:1042000000FB0355074FA1FB070C03FB07C701FB8E
:104210000371FCF72DF800196941BDE8F081000039
:104220003C04002040420F00AAB0FEF75DFF402191
:1042300001A8FCF7C7FA28A329A22DA101A8FCF721
:104240008FF821A901A8FCF7BFFD30A121A8FCF738
:10425000C3F940B932A121A8FCF7BEF918B91EA1D3
:104260001FA0FCF745FD30A130A0FCF76FFD4FF417
:104270007A7000F0E5FA314D64223149286B00F084
:104280008FFD012824D1402111A8FCF79BFA2C4C6A
:104290002CA1A0680090D4E9002311A8FCF760F8D5
:1042A00011A8FCF7CFF9C2B22CA101A8FCF758F86D
:1042B0001DA101A8FCF74AFD11A8FCF7C1FD20894A
:1042C000002302B2A08801B2208800B2FCF77AFB7A
:1042D000C820FEF757FFCFE7383038300000000025
:1042E0003139322E3136382E3131332E3737000006
:1042F00041542B43495053544152543D225443504E
:10430000222C222573222C2573000000414C52459B
:1043100041445920434F4E4E45435445440000000C
:10432000434F4E4E454354004F4B000041542B43E6
:1043300049504D4F44453D30000000000000002032
:1043400004010020543A253033642C483A25303398
:10435000642C4C3A253033640000000041542B4358
:10436000495053454E443D2564000000134C144D04
:104370004FF47A7611493C31081DFCF73BFC10B133
:10438000FCF71CFC09E0206C6860E06B28600023EF
:1043900064220B49206B00F053FCFCF761FB01F039
:1043A00077FE6064A860002364220549206B00F05A
:1043B00047FC3046FEF7E6FEDCE700000000002088
:1043C000EC000020154E4FF4FA67154C4FF4FA78C4
:1043D0007D10404600F034FA1BE072688242606B48
:1043E00005DA00F079FD012810D10EA204E000F0FA
:1043F00073FD01280AD10CA206210420FEF743FB1D
:1044000000231A461946606B00F01AFC3846FEF786
:10441000B9FEE06829468842DBD0DEE7F8000020DC
:1044200000000020485F4F0020202000DFF8788047
:104430001E4C4FF4FA7A4FF400774FF47A755046D9
:1044400000F0FEF91A4E4FF4FA6928E0B168814293
:104450000CDA012239464046FCF74DFE2946606BD6
:1044600000F03AFD012817D112A20BE000223946D4
:104470004046FCF740FE2946606B00F02DFD012808
:104480000AD10DA20C210420FEF7FDFA00231A46E2
:104490001946606B00F0D4FB4846FEF773FE2069B6
:1044A000A842CCD0D2E70000000C01400000002060
:1044B000F80000204C5F4F00202020001C4C4FF4DF
:1044C0007A7864221B49206B00F06AFC01282BD10A
:1044D00018484146D0E901650768606B00F0FCFCB4
:1044E000012821D1012114A20846FEF7CCFA252289
:1044F00008210220FEF746FA02233A460121184617
:10450000FEF795FA0223324606211846FEF76EFAA8
:1045100003232A460C210220FEF768FA00231A46DC
:104520001946606B00F08CFB4046FEF72BFEC8E797
:1045300000000020F800002054656D702048756D63
:1045400020204C6967687400194E4FF4FA67194CC3
:104550004FF4FA787D10404600F072F924E031689B
:1045600081420BDD3221002000F078F82946606B93
:1045700000F0B2FC012814D10FA208E000F068F8A6
:104580002946606B00F0A8FC01280AD10BA201218A
:104590000420FEF778FA00231A461946606B00F0F3
:1045A0004FFB3846FEF7EEFDA068A842D3D0D6E711
:1045B000F800002000000020545F4F002020200061
:1045C000214C4FF47A752048FDF708FE6060002802
:1045D000F9D0012816D00228206822D0206129466F
:1045E000606B00F079FC0128EDD103230C21184603
:1045F0002269FEF7FBF900231A461946606B00F0AA
:104600001FFBE0E72068A0602946606B00F064FCB7
:104610000128D8D1022301210320A268FEF707FA5E
:10462000E9E7E0602946606B00F056FC0128CAD13A
:10463000022306210320E268FEF7D8F903A208212D
:104640000320FEF720FAD6E7000000202500000036
:1046500008210148FDF762BB6403002010B50C4639
:1046600030B1FFF77DFD2046BDE81040FFF788BD63
:10467000FEF75AFDF7E7000030B50C4A0021136839
:10468000DC6A4FF47A726043B0FBF2F55A6A586AFA
:104690009042FCD002D9A0EB020202E0A4EB02029D
:1046A000024411440246A942F1D330BD3C0400202B
:1046B000D0E9013201699A60D0E901235A604A6861
:1046C000824201D182684A60002202610868401E6D
:1046D0000860086870470000034B036003F1540052
:1046E00008608020106070471001002000F1080170
:1046F0004FF0FF32C0E90112C16001610021016089
:10470000704700210161704730B50B685A1C02D018
:1047100000F1080202E0026904E0224654682568BC
:104720009D42FAD953684B6099608A605160086174
:104730000168491C016030BD42684A6093688B6023
:1047400093685960916008610168491C0160704775
:10475000502080F31188BFF34F8FBFF36F8F0A494A
:104760004868401C486001280CD10848006810F0D7
:10477000FF0F07D0502080F31188BFF34F8FBFF396
:104780006F8FFEE770470000B800002004ED00E0E6
:104790000849486828B1401E486001D180F311885B
:1047A0007047502080F31188BFF34F8FBFF36F8F96
:1047B000FEE70000B800002070B500282AD0164D92
:1047C000A0F1080460686969084207D1502080F3AD
:1047D0001188BFF34F8FBFF36F8FFEE722683AB1A6
:1047E000502080F31188BFF34F8FBFF36F8FFEE728
:1047F0008843606000F0F6F86068696808446860A3
:104800002046FFF793FB2869401C2861BDE87040F3
:1048100000F0F0BD70BD0000980000204FF0E020D7
:1048200000210161816105494FF47A720968B1FB89
:10483000F2F1491E416107210161704758000020D3
:1048400010B5020014D00F48006B38B1502080F32F
:104850001188BFF34F8FBFF36F8FFEE700F0C2F8F0
:1048600000211046FFF79AF900F0C4FD002807D197
:1048700005494FF080500860BFF34F8FBFF36F8F33
:1048800010BD00005C00002004ED00E002490A6A4F
:104890000260C968416070475C0000200149012046
:1048A000C86170475C00002010B50C4650B1094942
:1048B00009681831FFF728FF2046BDE810400121A4
:1048C000FFF76CB9502080F31188BFF34F8FBFF30F
:1048D0006F8FFEE75C00002070B5040047D0A26C2B
:1048E000A2B1606C884200D30146E06A88423ED0A3
:1048F000012A3CD11E4D2A6894420FD1502080F3EA
:104900001188BFF34F8FBFF36F8FFEE7502080F306
:104910001188BFF34F8FBFF36F8FFEE7E162A2698B
:10492000002A02DBC1F10701A161124E00EB8000F9
:10493000616906EB8000814219D1201DFFF7B8FEA6
:10494000012130B994F82C002A6901FA00F0824361
:104950002A61E06A2A6981401143296100EB8000E5
:1049600006EB8000211DBDE87040FFF7E5BE70BD7D
:104970005C0000208404002010B586B0002403945D
:1049800005AA04A903A80494FFF7A6FEDDE9030124
:104990000094CDE9011000230EA11048059A00F003
:1049A000BEFB0F490028C86211D0502080F3118847
:1049B000BFF34F8FBFF36F8F4FF0FF30886201203E
:1049C0004861CC6006B0BDE8104000F041B806B0C8
:1049D00010BD000049444C4500000000F13D0008B6
:1049E0005C0000200248016B491C01637047000015
:1049F0005C0000201448016B11B10121C1617047B6
:104A00000021C1610169B1FA81F1C1F11F0101EB1E
:104A100081020E4951F822306BB101EB820101F1A4
:104A200008034A6852684A609A4201D152684A6053
:104A3000D16801607047502080F31188BFF34F8F19
:104A4000BFF36F8FFEE700005C00002084040020AD
:104A50001CB5264908780190FF20087008788DF869
:104A600000009DF800009DF8002000F0F00090424A
:104A700007D0502080F31188BFF34F8FBFF36F8FA3
:104A8000FEE79DF800001A4C00F05000207007204F
:104A9000A06005E09DF8002052008DF80020401E27
:104AA0009DF800201206F5D4A060032807D05020FE
:104AB00080F31188BFF34F8FBFF36F8FFEE74FF482
:104AC0004070A060019808700A48016841F47001C4
:104AD0000160016841F070410160FFF79FFE002016
:104AE0006060FBF76BFB00201CBD000000E400E0F1
:104AF000B800002020ED00E010B5024600210120A2
:104B000000F005F80446FFF7A3F9204610BDF8B5FC
:104B100017460E46050013D005FB06F04830FFF798
:104B200093FA04000AD0002084F8460004F14802F9
:104B30003B46314628460094FFF795F92046F8BDDC
:104B4000502080F31188BFF34F8FBFF36F8FFEE7C4
:104B500038B5049D18B153B1CAB181B120E05020DD
:104B600080F31188BFF34F8FBFF36F8FFEE75020A4
:104B700080F31188BFF34F8FBFF36F8FFEE7502094
:104B800080F31188BFF34F8FBFF36F8FFEE739B10A
:104B9000502080F31188BFF34F8FBFF36F8FFEE774
:104BA00048241C46012384F846302B460094FFF726
:104BB0005AF9204638BD000070B50D46040025D0D6
:104BC000FFF7C6FDD4E90F20216802FB0011A160A8
:104BD0000021A163216861600A46D4E90F01401EEB
:104BE00000FB0121E16021464FF0FF3001F8440F46
:104BF000487004F110008DB1FFF778FD04F1240036
:104C0000FFF774FDFFF7C4FD012070BD502080F355
:104C10001188BFF34F8FBFF36F8FFEE72169002923
:104C2000F0D000F0ADFB0028ECD004494FF08050EC
:104C30000860BFF34F8FBFF36F8FE3E704ED00E031
:104C40002DE9FF4782B01D468A464FF00008040058
:104C500003D0BAF1000F08D011E0502080F3118882
:104C6000BFF34F8FBFF36F8FFEE7206C38B150203A
:104C700080F31188BFF34F8FBFF36F8FFEE7022DD4
:104C80000AD1E06B012807D0502080F31188BFF3D0
:104C90004F8FBFF36F8FFEE700F06CFA3F4F4FF07E
:104CA00000094FF0805648B9049838B1502080F37D
:104CB0001188BFF34F8FBFF36F8FFEE7FFF748FDFB
:104CC000A06BE16B884207D3022D05D00498D0B1C8
:104CD000B8F1000F1AD01EE02A4651462046FFF7D1
:104CE00010F8616A19B104F1240000F049FB20B109
:104CF0003E60BFF34F8FBFF36F8FFFF749FD012079
:104D000006B0BDE8F087FFF743FD22E06846FFF7F5
:104D1000BDFD4FF00108FFF73BFDFFF763FEFFF716
:104D200017FD94F94400401C01D184F8449094F993
:104D30004500401C01D184F84590FFF729FD04A9E6
:104D4000684600F085F930B12046FFF747F900F0DA
:104D500051FB0020D4E7FFF7FBFCA06BE16B88421E
:104D600013D1FFF715FD04F110000499FFF79CFD26
:104D70002046FFF733F900F03DFB00289ED13E604E
:104D8000BFF34F8FBFF36F8F98E7FFF701FD20460A
:104D9000FFF724F900F02EFB90E7000004ED00E09F
:104DA0002DE9F747002683B08A46040003D0BAF104
:104DB000000F08D011E0502080F31188BFF34F8F0F
:104DC000BFF36F8FFEE7206C38B1502080F311885D
:104DD000BFF34F8FBFF36F8FFEE700F0CBF9DFF823
:104DE000F4804FF000094FF0805748B9059838B16A
:104DF000502080F31188BFF34F8FBFF36F8FFEE712
:104E0000FFF7A6FCA56BC5B151462046FEF766FF2D
:104E10006D1EA563206950B104F1100000F0B0FAD6
:104E200028B1C8F80070BFF34F8FBFF36F8FFFF743
:104E3000AFFC012006B0BDE8F087059808B11EB1AF
:104E400006E0FFF7A5FC27E06846FFF71FFD0126F7
:104E5000FFF79EFCFFF7C6FDFFF77AFC94F94400CC
:104E6000401C01D184F8449094F94500401C01D1C4
:104E700084F84590FFF78CFC05A9684600F0E8F837
:104E8000002820460AD0FFF7A9F800F0B3FA204620
:104E9000FFF772F80028B3D00020CBE7FFF76CF8DB
:104EA00090B104F124000599FFF7FEFC2046FFF7BE
:104EB00095F800F09FFA0028A2D1C8F80070BFF35F
:104EC0004F8FBFF36F8F9BE72046FFF787F800F007
:104ED00091FA95E704ED00E02DE9F343002683B055
:104EE0000400354609D0206C78B1502080F3118839
:104EF000BFF34F8FBFF36F8FFEE7502080F3118811
:104F0000BFF34F8FBFF36F8FFEE700F033F9DFF889
:104F10003C814FF000094FF0805748B9049838B1F0
:104F2000502080F31188BFF34F8FBFF36F8FFEE7E0
:104F3000FFF70EFCA06BC8B1401EA063206810B93B
:104F4000FFF7F0F8A060206950B104F1100000F004
:104F500017FA28B1C8F80070BFF34F8FBFF36F8FF7
:104F6000FFF716FC012005B0BDE8F083049808B1F6
:104F700066B10FE03DB1502080F31188BFF34F8F31
:104F8000BFF36F8FFEE7FFF703FC5DE06846FFF7B6
:104F90007DFC0126FFF7FCFBFFF724FDFFF7D8FBA4
:104FA00094F94400401C01D184F8449094F94500E0
:104FB000401C01D184F84590FFF7EAFB04A968463C
:104FC00000F046F80028204612D0FFF707F800F05E
:104FD00011FA2046FEF7D0FF0028A9D09DB3FFF7B5
:104FE000B7FB606A50B3206B0068C0F1070126E090
:104FF000FEF7C2FFE0B1206838B9FFF7A9FBA0684F
:1050000000F078F90546FFF7C3FB04F1240004998A
:10501000FFF74AFC2046FEF7E1FF00F0EBF900281D
:1050200086D1C8F80070BFF34F8FBFF36F8F7FE753
:105030002046FEF7D3FF00F0DDF979E70021A068F4
:10504000FFF74AFC9FE7FFE700208CE704ED00E054
:105050002DE9F0410C46050011D0C4B1FFF778FBF3
:10506000174BDA686E682068911B471C17D02F68B1
:105070001B6A9F4219D0964217D8012410E0502095
:1050800080F31188BFF34F8FBFF36F8FFEE750207F
:1050900080F31188BFF34F8FBFF36F8FFEE70024BB
:1050A000FFF776FB2046BDE8F081884205D9401A1B
:1050B00020602846FFF7EAFBF1E700202060DCE7EC
:1050C0005C0000202DE9FF5F8346DDE90E879946ED
:1050D00016468A469000FEF7B7FF05001CD0542004
:1050E000FEF7B2FF040014D00020256384F85100BD
:1050F000CDE90240CDE900874B463246514658463D
:10510000FEF7BCFE2046FEF781FD012004B0BDE89D
:10511000F09F2846FFF750FB4FF0FF30F6E7F0B561
:1051200085B0DDE90B640A9DA6B1DCB15427009778
:105130002663022684F85160002604AFCDE90246BA
:10514000CDE90057FEF79AFE2046FEF75FFD049872
:1051500005B0F0BD502080F31188BFF34F8FBFF32F
:105160006F8FFEE7502080F31188BFF34F8FBFF39E
:105170006F8FFEE70548416919B1006B18B1002037
:105180007047012070470220704700005C0000203B
:105190002DE9F0412F4C0026206B28B1A069401C5E
:1051A000A0613046BDE8F081E5686D1CE56013D173
:1051B000606B006838B1502080F31188BFF34F8FC7
:1051C000BFF36F8FFEE7606BA16B6163A063206A22
:1051D000401C2062FEF7DEFEA06ADFF87C8085427C
:1051E00009D3606B0068A0B1606BC068C76878685D
:1051F000854211D2A0622068C06A00EB800158F895
:105200002100012800D90126E0690028C9D0012623
:10521000C7E74FF0FF30EDE7381DFFF749FAB86AEE
:1052200018B107F11800FFF743FAF96A0120226963
:1052300088401043206101EB810108EB8100391D9A
:10524000FFF77AFAF86A2168C96A8842C9D3012649
:10525000C7E700005C0000208404002070B5040053
:105260004FF0000140D0214D2868844207D05020E3
:1052700080F31188BFF34F8FBFF36F8FFEE7A06CF1
:1052800038B1401EA064636CE26A9A422CD040B1EF
:105290002AE0502080F31188BFF34F8FBFF36F8F48
:1052A000FEE7201DFFF704FA114A012150B9E06A18
:1052B00000EB800352F8233023B92B6901FA00F088
:1052C00083432B61606CE062C0F10700A061E06A7B
:1052D0002B6981401943296100EB800002EB8000BB
:1052E000211DFFF729FA0121084670BD5C0000204E
:1052F0008404002070B504004FF0000034D01E4D2F
:10530000E16A2A68D26A91422FD2A069002804DBA0
:105310002868C06AC0F10700A061184E01EB810146
:10532000606906EB810188421AD1201DFFF7C0F9A0
:10533000012130B994F82C002A6901FA00F0824367
:105340002A612868C06AE0622A69814011432961A4
:1053500000EB800006EB8000211DFFF7EDF902E075
:105360002868C06AE062012070BD616C2A68D26A58
:105370009142F8D370BD00005C000020840400203E
:105380002DE9F041C068C468ACB104F118000746CB
:10539000FFF78EF9154D286B0126A0B13946144848
:1053A000FFF7CAF9E06A2968C96A88421CD9012056
:1053B000EE61BDE8F081502080F31188BFF34F8F7C
:1053C000BFF36F8FFEE7201DFFF772F9E16A2A69CC
:1053D00006FA01F01043286101EB81000449B43959
:1053E00001EB8000211DDBE70020E2E75C000020EC
:1053F000380500202DE9F0472C4D00242746286B66
:1054000038B1FFF7A5F9286B401E2863286B40B11F
:1054100046E0502080F31188BFF34F8FBFF36F8FAA
:10542000FEE7A968224E0120D1B3A6F1B409804657
:105430003068E8B1F068C46804F11800FFF738F983
:10544000201DFFF735F9E06A2A6908FA00F11143D7
:10545000296100EB800109EB8100211DFFF76CF948
:10546000E06A2968C96A8842E2D3C5F81C80DFE790
:105470000CB1FEF78FFDAC6944B14646FFF788FEDC
:1054800000B1EE61641EF9D10020A861E86938B16D
:105490000849012738070860BFF34F8FBFF36F8FAC
:1054A000FFF776F93846BDE8F08700005C00002081
:1054B0003805002004ED00E021F00042A2F1605226
:1054C000B2F5801F01F0004328BFD2F17F6C0BD9E9
:1054D0005FEA001C43EAC20242EB507018BF7047FB
:1054E00028BF20F001007047B2F5801FBCBF1846EE
:1054F00070474FEA410C1CF5001F02D2084600F02D
:1055000028BE70B500F05EFB00000089FFF7F6BF13
:105510004FF00040A0F580007047000010B591EA00
:10552000030F48BF83F0004300F1D084841A71EB6D
:10553000030C05D2121943EB0C03001B61EB0C01A9
:10554000DFF824E14FEA1154A4EB135C1EEA430F89
:1055500018BF9EEA445F73D023EA0E03DCF1200EED
:1055600021EA045143F4801332D322FA0CFE10EBEB
:105570000E0023FA0CFE41EB0E01CCF1200E03FAD3
:105580000EFE10EB0E0051F10001B1F5801FCCF1C1
:10559000200E32D201EB045112FA0EF2BDE8104097
:1055A00058BF7047401C38BF5FEA420218BF7047BF
:1055B000002814BF20F0010041F100014FEA41032F
:1055C00013F5001F38BF7047A1F1C04100F048BB80
:1055D000012A43EB0302ACF1200CDCF11F0E32BFB9
:1055E0004FF0000E23FA0CF310EB030041EB0451D3
:1055F000B4EB115FD0D0A1EB045101F58011490843
:105600005FEA300001EB04510ED350F1000038BFC7
:1056100012FA0EFE08D1BDE81040C9E7401C38BFA1
:105620005FEA4202CAD1C3E7BDE810404FEA410336
:1056300013F5001F38BF7047A1F1C04100F010BB47
:105640009EEA445F08D011EA5E0FBDE8104004BF37
:1056500001F0004100207047BDE8104070B500F037
:10566000B1FA00BF64FBBE3E0000E0FF02494FF00C
:10567000000000F073BD00BF0000F87F491058BF64
:10568000C1F140415B1058BFC3F140438B42EFF37F
:10569000008070472DE9C04130B4DFF8A0C23CEA79
:1056A000111418BF3CEA131400F0EC8081EA0305E2
:1056B0001CEA111444EAD57418BF1CEA131500F053
:1056C000C780A4EB05044FF0004545EAC12145EA37
:1056D000C32341EA505143EA525304F17F74994283
:1056E00004F500344FEAC0204FEAC22208BF9042BE
:1056F00000F09C804FEA13650FF24016765D4FEA8A
:10570000134506FB05F7C7F1807706FB07F74FEA5D
:10571000D737A7FB03687642C8F58038A7FB06CECB
:1057200038BFA8F1010807FB08E64FF0000EA6FB02
:10573000028CE6FB03CEDCF1000CCEF1004E38BF4C
:10574000AEF1010EA6FB0C584FF000074FF000051C
:10575000E6FB0E87A1FB08C6A0FB07CE16EB0E06E4
:1057600045F10005E1FB076515F1E04E7EBFA4F5AC
:1057700080345FEA46066D4116F1800745F1000569
:105780004FEA17274FEA066647EA0567A6F1DE46A5
:10579000B6F1805F4FEA15251FD9384624F0010C79
:1057A00005EBC471BCF1FE6F01EB0C1102D8F0BC2B
:1057B000BDE8008124425CBF01F5801E9EEAC47FE3
:1057C00002D4F0BCBDE80081244238D4F0BCA1F181
:1057D000C041BDE8004100F043BA4FEAD22242EA9C
:1057E00043524FEAD323A7FB02864FEAD02040EA78
:1057F000415007FB03661EEA0E0F4FEAD12105FB5D
:10580000026658BFA6EB0056B6EB00564FEA520EA2
:105810004EEAC37E18EB0E0E56EB530EBDD518EBB9
:1058200002085E417F1C55F10005B6E74FF4801574
:105830004FF000074FF000064FF00008ADE7F0BC56
:105840004FF0000001F1C04101F00041BDE80081CE
:1058500011EA0C1F0CEA131500D00CE013EA0C1F20
:1058600000F025804FF00000F0BC81EA030101F058
:105870000041BDE80081F0BCBDE8004181EA0301C0
:1058800000F0EEB9F0BCBDE8004170B500F09AF947
:10589000097EFC3E00F007B881EA03014FF00000EA
:1058A00001F00041704781EA030100F0D9B9F0BC72
:1058B000BDE800414FF0000021497047FFFDFBF9B2
:1058C000F7F5F4F2F0EEEDEBE9E8E6E4E3E1E0DE33
:1058D000DDDBDAD8D7D5D4D3D1D0CFCDCCCBCAC8A5
:1058E000C7C6C5C4C2C1C0BFBEBDBCBBBAB9B8B7CC
:1058F000B6B5B4B3B2B1B0AFAEADACABAAA9A8A8BF
:10590000A7A6A5A4A3A3A2A1A09F9F9E9D9C9C9B8C
:105910009A99999897979695959493939291919037
:105920008F8F8E8E8D8C8C8B8B8A898988888787C8
:105930008685858484838382828181800000FF073D
:105940000000F87F4FEA41034FEA5353A3F5806309
:10595000D3F11E03C8BFD3F1210C0CDD4FF0004280
:1059600042EAC12242EA505232FA03FC8CEAE17C5C
:10597000ACEBE1707047102BC4BF0020704703F5FB
:10598000787CBCF1FF3F04D06FF0004282EA210036
:10599000704770B500F016F94992248000207047D6
:1059A000F2E710F0004248BF4042B0FA80F310FA2C
:1059B00003F10AD0C3F11D0303F580634FEA4150A0
:1059C00002EB035202EBD12170474FF00000704709
:1059D000B0FA80F310FA03F10AD0C3F11D0303F506
:1059E00080634FEA41504FEA035202EBD1217047E6
:1059F0004FF000007047000051EA030C17D41CF56B
:105A0000801F58BFBCF5801F00F10680994218BF67
:105A1000704708BF9042704707D711F5801F58BFE5
:105A200013F5801F19D499427047894270471CF5BD
:105A3000801F08D5BCF5801FF7D58B4218BF704773
:105A400008BF824270474FF4001C1CEB410F38BF67
:105A50001CEB430F01D28B42704770B500F0B2F8D7
:105A6000922449004FF000514FF08053FFF706BEDB
:105A7000DFF848C170B51CEA111E1EBF1CEA1315E1
:105A80009EEA0C0F95EA0C0F00F06F8081EA030488
:105A900023EA4C134EEAD47E21EA4C1141F48011E2
:105AA00043F48013AE44A1FB024CA0FB0365AEF1AE
:105AB0007F7E361955EB0C05A1FB034C4CF100031E
:105AC000A0FB021C16EB0C06654153F100030942D2
:105AD00018BF46F0010613F4007F0BD14FEA0331E3
